S00D000074657374352E7372656322
S113000033C000004CC000004AC0000048C00000DB
S113001046C0000044C0000042C0000040C00000D0
S11300203EC000003CC000003AC0000038C00000E0
S113003036C0000034C0000032C0000030C00000F0
S11300402EC000002CC000002AC0000028C0000000
S113005026C0000024C0000022C0000020C0000010
S11300601EC000001CC0000011241FBECFEFD8E04A
S1130070DEBFCDBF11E0A0E0B1E0EEECF3E002C0E2
S113008005900D92A830B107D9F711E0A8E0B1E0CE
S113009001C01D92AA30B107E1F78BD196C1B0CF50
S11300A0A7E2B0E08C9180618C93E8E2F0E080817B
S11300B08061808391E0892F8A95F1F78081806245
S11300C08083892F8A95F1F780818F7E8083892FA1
S11300D08A95F1F780818F7D80839A95F1F78C91D1
S11300E08F7E8C930895E7E2F0E090819061908395
S11300F027E030E0682F70E0E8E2F0E041E0CB0177
S1130100022E02C0959587950A94E2F780FF04C0F9
S113011080818061808303C080818F7E8083842F6F
S11301208A95F1F7808180628083842F8A95F1F724
S113013080818F7D8083842F8A95F1F72150304010
S11301408FEF2F3F3807D9F6E7E2F0E080818F7E0A
S113015080830895A7E2B0E08C9180618C93E8E2FB
S1130160F0E080818F7E808391E0892F8A95F1F77A
S1130170808180628083892F8A95F1F780818061F4
S113018080839A95F1F78C918F7E8C930895A7E2E2
S1130190B0E08C9180618C93E8E2F0E08081806132
S11301A0808391E0892F8A95F1F78C918F7E8C93CF
S11301B08081806280839A95F1F7349B09C081E045
S11301C08A95F1F7349B04C081E08A95F1F786B1F2
S11301D086B1E8E2F0E090819F7D908391E09A956A
S11301E0F1F780710895E7E2F0E080818063808315
S11301F0E8E2F0E080818063808308951F93182FE4
S1130200109208014DDF80E46EDFC1DF9091080198
S1130210982B90930801812F66DFB9DF9091080134
S1130220982B9093080196DF80910801882341F769
S11302301F9108951F93182F807F85608093090173
S1130240DDDF809109018B7F80930901D7DF81E293
S11302508A95F1F71295107F156010930901812F8B
S1130260CDDF809109018B7F80930901C7DF84EF83
S113027091E00197F1F71F9108950F931F93CF9386
S1130280DF939C01062F009759F0662349F0182F3D
S1130290282FE9018991CEDF9E01211B2017D0F37D
S11302A0DF91CF911F910F9108951F93182F807F95
S11302B0846080930901A2DF809109018B7F809380
S11302C009019CDF81E28A95F1F7812F8295807F75
S11302D084608093090192DF809109018B7F809370
S11302E009018CDF1C7F21F081E28A95F1F704C0BB
S11302F084EF91E00197F1F71F9108951F9380E037
S11303007DDF80E197E20197F1F780E380930901B3
S113031075DF809109018460809309016FDF80910A
S113032009018B7F8093090169DF82EE94E00197D4
S1130330F1F7809109018460809309015FDF809166
S113034009018B7F8093090159DF11E2812F8A957E
S1130350F1F7809109018460809309014FDF809156
S113036009018B7F8093090149DF812F8A95F1F779
S113037080E28093090142DF8091090184608093C7
S113038009013CDF809109018B7F8093090136DFED
S1130390812F8A95F1F788E288DF88E086DF81E0A3
S11303A084DF1A95F1F786E080DF8CE07EDF1F9111
S11303B00895CF93DF9317DFA1DFC0E0D1E080E899
S11103C074DFCE0166E059DFFACFF894FFCF68
S10B03CE4B45592023310000C6
S9030000FC
