S00D000074657374362E7372656321
S113000071C0000084C0000082C0000080C00000F5
S11300107EC000007CC000007AC0000078C00000F0
S113002076C0000074C0000072C0000070C0000000
S11300306EC000006CC000006AC0000068C0000010
S113004066C0000064C0000062C0000060C0000020
S11300505EC000005CC000005AC0000058C0000030
S113006056C0000054C0000052C0000050C0000040
S11300704EC000004CC000004AC0000048C0000050
S113008046C0000044C0000042C0000040C0000060
S11300903EC000003CC000003AC0000038C0000070
S11300A036C0000034C0000032C0000030C0000080
S11300B02EC000002CC000002AC0000028C0000090
S11300C026C0000024C0000022C0000020C00000A0
S11300D01EC000001CC000001AC0000018C00000B0
S11300E016C0000011241FBECFEFD1E2DEBFCDBF8A
S11300F012E0A0E0B2E0E6E6F2E000E00BBF02C0EE
S113010007900D92AA30B107D9F76FD0AAC078CF63
S11301108093BB0084E88093BC00ECEBF0E080812A
S11301208823ECF78091B900887F883119F480E046
S113013090E0089590E0883209F491E081E0892705
S113014008951F93982F162F84EA8093BC00ECEB3C
S1130150F0E080818823ECF78091B900887F8830B3
S113016011F0803159F4892FD3DF813039F0812F98
S1130170CFDF982F84E98093BC0004C084E9809386
S1130180BC0091E0892F1F910895FF920F931F9354
S1130190F82E062F182F107F162B1C608EE7612F68
S11301A0D0DF1B7F8EE7612FCCDF83E08A95F1F7E8
S11301B00C601F2D1295107F102B8EE7612FC1DF6D
S11301C01B7F8EE7612FBDDF81E0F81629F484EDF3
S11301D090E30197F1F703C080E18A95F1F780E09D
S11301E090E01F910F91FF9008951F93CF93DF9399
S11301F08DEF8093B8008EE764E2A3DF8EE760E2C0
S1130200A0DF84ED90E30197F1F788E260E0BDDFC1
S113021088E060E0BADF81E060E0B7DF86E060E0BC
S1130220B4DF8CE060E0B1DF81E060E0AEDF80E865
S113023060E0ABDF10E083E6C0E0D2E01F5F61E086
S1130240A4DFFE01E10FF11D8081882311F01F3F1F
S1130250A9F788EC60E099DF10E3812F61E095DF76
S1090260FCCFF894FFCF6F
S10D0266636F756E742069733A002B
S9030000FC
