:1000000071C0000084C0000082C0000080C00000F9
:100010007EC000007CC000007AC0000078C00000F4
:1000200076C0000074C0000072C0000070C0000004
:100030006EC000006CC000006AC0000068C0000014
:1000400066C0000064C0000062C0000060C0000024
:100050005EC000005CC000005AC0000058C0000034
:1000600056C0000054C0000052C0000050C0000044
:100070004EC000004CC000004AC0000048C0000054
:1000800046C0000044C0000042C0000040C0000064
:100090003EC000003CC000003AC0000038C0000074
:1000A00036C0000034C0000032C0000030C0000084
:1000B0002EC000002CC000002AC0000028C0000094
:1000C00026C0000024C0000022C0000020C00000A4
:1000D0001EC000001CC000001AC0000018C00000B4
:1000E00016C0000011241FBECFEFD1E2DEBFCDBF8E
:1000F00012E0A0E0B2E0E4EBF1E000E00BBF02C0F0
:1001000007900D92A030B107D9F70AD051C078CF2F
:100110008FEF81B984B987B98AB98DB980BB089549
:100120008F929F92AF92BF92DF92EF92FF920F93C6
:100130001F93CF93DF93ECDF01E310E00F2EFEE27D
:10014000EF2EFF24F02DEBE2F0E00F2EF8E28F2EE1
:100150009924F02DC5E2D0E00F2EF2E2AF2EBB24A1
:10016000F02D6FEF7FEF49E150E00F2EFDEFDF2E16
:10017000F02DD8011C928C91D7018C938C918083A7
:100180008081D4018C938C9188838881D5018C9354
:100190009B01CA010197F1F721503040D1F7D0827D
:1001A0009B01CA010197F1F721503040D1F7E1CF0F
:0401B000F894FFCFF1
:00000001FF
